:020000040800F2
:1000000000500020F91500085503000857030008A8
:10001000590300085B0300085D03000800000000AE
:100020000000000000000000000000005F03000866
:100030006103000800000000630300086503000876
:100040004116000841160008411600084116000834
:100050004116000841160008411600084116000824
:100060004116000841160008411600084116000814
:100070004116000841160008411600084116000804
:1000800041160008411600084116000841160008F4
:1000900041160008411600084116000841160008E4
:1000A00041160008411600084116000841160008D4
:1000B00041160008411600084116000841160008C4
:1000C00041160008411600084116000841160008B4
:1000D000411600086D03000841160008411600088B
:1000E00041160008411600084116000800000000F3
:1000F0000000000000000000000000000000000000
:0C01000000000000000000005FF808F1A3
:10010C00034613F8012B002AFBD1181A013870474B
:10011C000348044B834202D0034B03B1184770478A
:10012C000C0000200C000020000000000548064BCD
:10013C001B1AD90F01EBA301491002D0034B03B1D9
:10014C00184770470C0000200C0000200000000035
:10015C0010B5064C237843B9FFF7DAFF044B13B103
:10016C000448AFF300800123237010BD0C00002065
:10017C00000000009C16000808B5054B1BB1054992
:10018C000548AFF30080BDE80840FFF7CFBF00BFC4
:10019C0000000000100000209C16000870B588B00C
:1001AC0000240494059406940794214B9A6942F018
:1001BC0010029A619A6902F010020092009A9A69F0
:1001CC0042F020029A619A6902F020020192019A8F
:1001DC009A6942F004029A619A6902F0040202924E
:1001EC00029A9A6942F008029A619B6903F008032B
:1001FC000393039B0F4E22464FF40051304600F000
:10020C00B4FD4FF400530493012505950694022385
:10021C00079304A9304600F093FC3823049305940B
:10022C00069504A9044800F08BFC08B070BD00BF13
:10023C000010024000100140000C014072B6FEE7B5
:10024C0008B50A480A4B03604FF4E13343600023BE
:10025C008360C36003610C2242618361C36100F05F
:10026C0067FF00B908BDFFF7E9FF00BF28000020B9
:10027C000038014000B591B02822002106A801F0F9
:10028C00DAF900230193029303930493059301225B
:10029C0006924FF4803307930A9202220D920E932A
:1002AC004FF4E0130F9306A800F03CF980B90F232C
:1002BC00019302210291002303934FF48062049274
:1002CC00059301A800F060FB20B911B05DF804FBA8
:1002DC00FFF7B4FFFFF7B2FF00B58BB0EC46164C3E
:1002EC000FCCACE80F000FCCACE80F0094E8030087
:1002FC004CF8040B8CF8001000F0C6F8FFF7BAFFAE
:10030C00FFF74CFFFFF79CFF20210C4800F026FD67
:10031C000028F9D10A2000F0DBF84FF4005108480E
:10032C0000F029FD6846FFF7EBFE642382B26946B4
:10033C00044800F02DFFE7E7B4160008000C01405C
:10034C000010014028000020FEE7FEE7FEE7FEE774
:10035C00FEE770477047704708B500F0A7F808BD76
:10036C0008B5024801F000F808BD00BF28000020C5
:10037C0082B00E4B9A6942F001029A619A6902F0BE
:10038C0001020092009ADA6942F08052DA61DB696C
:10039C0003F080530193019B054A536823F0E063FB
:1003AC0043F00073536002B0704700BF001002406E
:1003BC000000014030B587B00023029303930493EF
:1003CC00059302681B4B9A4201D007B030BD03F570
:1003DC0058439A6942F480429A619A6902F48042C5
:1003EC000092009A9A6942F004029A619B6903F0A8
:1003FC0004030193019B4FF40073029302230393B4
:10040C00032305930C4D02A9284600F099FB4FF4E9
:10041C008063029300240394049402A9284600F0FC
:10042C008FFB22462146252000F064FD252000F09C
:10043C0071FDCAE7003801400008014010B50446C0
:10044C000E4B1A784FF47A73B3FBF2F30C4A106824
:10045C00B0FBF3F000F06CFD68B90F2C01D9012052
:10046C000AE0002221464FF0FF3000F043FD054B1F
:10047C001C60002000E0012010BD00BF0000002027
:10048C00080000200400002008B5074A136843F058
:10049C0010031360032000F01BFD0F20FFF7CEFFAD
:1004AC00FFF766FF002008BD00200240034A1168D8
:1004BC00034B1B780B441360704700BF7000002087
:1004CC0000000020014B1868704700BF700000202E
:1004DC0038B50446FFF7F6FF0546B4F1FF3F02D0EE
:1004EC00044B1B781C44FFF7EDFF401BA042FAD3D2
:1004FC0038BD00BF0000002082B0084B1B68084AC2
:10050C00A2FB03235B0A00FB03F3019300BF019BD7
:10051C005A1E0192002BF9D102B07047080000203E
:10052C00D34D6210002800F0F18170B582B0044602
:10053C00036813F0010F2CD0994B5B6803F00C038C
:10054C00042B1DD0964B5B6803F00C03082B12D0C8
:10055C006368B3F5803F41D0002B55D103F1804344
:10056C0003F504331A6822F480321A601A6822F4F4
:10057C0080221A6037E08A4B5B6813F4803FE7D027
:10058C00874B1B6813F4003F03D06368002B00F00B
:10059C00BF81236813F0020F75D0814B5B6813F099
:1005AC000C0F5FD07E4B5B6803F00C03082B54D010
:1005BC002369002B00F08A807A4B01221A60FFF726
:1005CC0081FF0546764B1B6813F0020F75D1FFF7C0
:1005DC0079FF401B0228F5D903209EE1704A13686D
:1005EC0043F480331360636843B3FFF76BFF054636
:1005FC006B4B1B6813F4003FCBD1FFF763FF401B21
:10060C006428F5D9032088E1B3F5A02F09D0644BF9
:10061C001A6822F480321A601A6822F480221A6056
:10062C00E1E703F18043A3F53C331A6842F48022DE
:10063C001A601A6842F480321A60D4E7FFF742FF5E
:10064C000546574B1B6813F4003FA2D0FFF73AFF47
:10065C00401B6428F5D903205FE1514B5B6813F410
:10066C00803FA5D14E4B1B6813F0020F03D02369BA
:10067C00012B40F04F814A4A136823F0F80361695B
:10068C0043EAC1031360236813F0080F33D0A36946
:10069C00002B5CD0434B0122C3F88024FFF712FFE0
:1006AC0005463F4B5B6A13F0020F21D1FFF70AFF9F
:1006BC00401B0228F5D903202FE1394A136823F097
:1006CC00F803616943EAC1031360DCE7354B002290
:1006DC001A60FFF7F7FE0546314B1B6813F0020F4B
:1006EC00D1D0FFF7EFFE401B0228F5D9032014E10F
:1006FC000120FFF701FF236813F0040F00F0968030
:10070C00274BDB6913F0805F34D1254BDA6942F05B
:10071C008052DA61DB6903F080530193019B012560
:10072C00214B1B6813F4807F26D0E368012B3DD04E
:10073C00002B53D103F1804303F504331A6A22F0E2
:10074C0001021A621A6A22F004021A6233E0154B93
:10075C000022C3F88024FFF7B5FE0546104B5B6AF8
:10076C0013F0020FC7D0FFF7ADFE401B0228F5D9DE
:10077C000320D2E00025D3E70B4A136843F48073BF
:10078C001360FFF79FFE0646074B1B6813F4807F30
:10079C00CBD1FFF797FE801B6428F5D90320BCE072
:1007AC000010024000004242007000405F4A136A91
:1007BC0043F001031362E36833B3FFF783FE06468D
:1007CC005A4B1B6A13F0020F2FD1FFF77BFE801BD5
:1007DC0041F288339842F3D903209EE0052B09D0CF
:1007EC00524B1A6A22F001021A621A6A22F00402AF
:1007FC001A62E0E74D4B1A6A42F004021A621A6A56
:10080C0042F001021A62D6E7FFF75CFE0646474B40
:10081C001B6A13F0020F08D0FFF754FE801B41F245
:10082C0088339842F3D9032077E0E5B9E369002BCC
:10083C0072D03E4A526802F00C02082A56D0022BA3
:10084C0017D03B4B00221A66FFF73CFE0446374B91
:10085C001B6813F0007F47D0FFF734FE001B022803
:10086C00F5D9032059E0314AD36923F08053D36181
:10087C00DCE72F4B00221A66FFF724FE05462B4BB4
:10088C001B6813F0007F06D0FFF71CFE401B0228EC
:10089C00F5D9032041E0236AB3F5803F1AD02349F0
:1008AC004B6823F47413226A606A024313434B604F
:1008BC001F4B01221A66FFF705FE04461B4B1B68F3
:1008CC0013F0007F0ED1FFF7FDFD001B0228F5D9B8
:1008DC00032022E0154A536823F40033A1680B432C
:1008EC005360DCE7002018E0002016E0012B16D046
:1008FC000E4B5B6803F48031226A914211D103F4F0
:10090C007013626A93420ED1002006E001207047FA
:10091C00012002E0012000E0002002B070BD0120A7
:10092C00FBE70120F9E70120F7E700BF00100240C8
:10093C00000042420F4B5B6803F00C02082A01D006
:10094C000D487047C3F383420C49885C13F4803F15
:10095C000BD0084B5B68C3F34043094AD35C064A8F
:10096C0002FB00F0B0FBF3F07047064B03FB00F00A
:10097C00704700BF0010024000127A00E016000819
:10098C00DC16000800093D00002800F0A08070B5BE
:10099C000D460446524B1B6803F007038B420BD2E7
:1009AC004F4A136823F007030B431360136803F0DB
:1009BC0007038B4240F08D80236813F0020F17D091
:1009CC0013F0040F04D0474A536843F4E0635360B8
:1009DC00236813F0080F04D0424A536843F4605361
:1009EC005360404A536823F0F003A1680B435360F3
:1009FC00236813F0010F31D06368012B20D0022B38
:100A0C0025D0384A126812F0020F64D035494A6872
:100A1C0022F0030213434B60FFF754FD0646314BA3
:100A2C005B6803F00C036268B3EB820F16D0FFF720
:100A3C0049FD801B41F288339842F0D9032045E0F0
:100A4C00284A126812F4003FE0D101203EE0254A0A
:100A5C00126812F0007FD9D1012037E0204B1B68BF
:100A6C0003F00703AB420AD91D4A136823F00703AE
:100A7C002B431360136803F00703AB422DD123689B
:100A8C0013F0040F06D0174A536823F4E063E168AF
:100A9C000B435360236813F0080F07D0114A5368B7
:100AAC0023F46053216943EAC1035360FFF742FF0B
:100ABC000C4B5B68C3F303130B4AD35CD8400B4B52
:100ACC0018600B4B1868FFF7B9FC002070BD0120B3
:100ADC0070470120FAE70120F8E70120F6E700BF94
:100AEC000020024000100240F81600080800002008
:100AFC0004000020014B1868704700BF080000205C
:100B0C0008B5FFF7F7FF044B5B68C3F30223034AF6
:100B1C00D35CD84008BD00BF00100240F01600089E
:100B2C0008B5FFF7E7FF044B5B68C3F3C223034A26
:100B3C00D35CD84008BD00BF00100240F01600087E
:100B4C0070B582B00024A446A2E07E4DAB4210D01A
:100B5C0007D97D4DAB420CD005F58035AB4208D0A2
:100B6C0013E0A5F58015AB4203D005F57025AB421B
:100B7C0007D18B68002B55D0012B4ED04261082435
:100B8C0003E0A5F58015AB42F3D0BEF1FF0F4BD8B7
:100B9C0006464FEA8C0233680F25954023EA05037D
:100BAC0004FA02F2134333604B6813F0805F6DD08C
:100BBC00664B9A6942F001029A619B6903F001034A
:100BCC000193019B4FEA9C02951C614B53F82560E5
:100BDC000CF00305AD000F23AB4026EA03065D4B7A
:100BEC00984228D003F58063984200F08D8003F57D
:100BFC008063984200F08A8003F58063984218D095
:100C0C00042319E0CC68C0E7CC680434BDE7CC6899
:100C1C000834BAE7CC680C34B7E702610824B4E7AF
:100C2C000024B2E70424B0E7061DACF108029200E0
:100C3C00B1E7032300E00023AB4033430232444DC1
:100C4C0045F822304B6813F4801F61D0424A9368F8
:100C5C0043EA0E0393604B6813F4001F5ED03E4AC8
:100C6C00D36843EA0E03D3604B6813F4003F5BD0A8
:100C7C00394A536843EA0E0353604B6813F4803FC0
:100C8C0058D0354A136843EA0E0313600CF1010C7B
:100C9C000B6833FA0CF253D0012202FA0CF203EA7D
:100CAC00020E32EA0303F1D14B68122B3FF64DAF23
:100CBC00122B3FF66AAF01A555F823F07F0B000805
:100CCC00110C00081B0C00082D0C0008970B0008D9
:100CDC00970B0008970B0008970B0008970B000860
:100CEC00970B0008970B0008970B0008970B000850
:100CFC00970B0008970B0008970B0008970B000840
:100D0C00150C0008210C0008012395E7022393E73A
:100D1C00114A936823EA0E0393609CE70E4AD3684A
:100D2C0023EA0E03D3609FE70B4A536823EA0E03B2
:100D3C005360A2E7084A136823EA0E031360A5E781
:100D4C0002B070BD000022100000311000100240F3
:100D5C000000014000080140000401408368194272
:100D6C0001D001207047002070470AB10161704723
:100D7C00090401617047C36801EA030221EA030117
:100D8C0041EA024101617047034690F82120D2B23A
:100D9C00022A06D004228263002280F8202001203F
:100DAC00704701680A6822F00E020A6001680A683E
:100DBC0022F001020A60026CC06B012101FA02F2FE
:100DCC00426083F82110002083F820007047000057
:100DDC0008B590F82130DBB2022B03D004238363D7
:100DEC00012008BD0268136823F00E03136002682B
:100DFC00136823F0010313600368194A934214D05B
:100E0C00143293421FD0143293421ED014329342A8
:100E1C001ED0143293421ED01432934202D04FF0A3
:100E2C00807203E04FF4801200E001220D4B5A60F7
:100E3C00012380F82130002380F82030436B6BB104
:100E4C0098470020CDE71022F0E74FF48072EDE7D1
:100E5C004FF48052EAE74FF48032E7E70020C0E716
:100E6C000800024000000240002808DB0901C9B25A
:100E7C0000F1604000F5614080F80013704700F00D
:100E8C000F000901C9B2014B1954704714ED00E071
:100E9C0000B500F00700C0F1070CBCF1040F28BF2F
:100EAC004FF0040C031D062B0FD9C31E4FF0FF3E51
:100EBC000EFA0CF021EA000199400EFA03FE22EA28
:100ECC000E0241EA02005DF804FB0023EEE700008D
:100EDC00074AD36823F4E0631B041B0C000200F4E4
:100EEC00E060034343F0BF6343F40033D3607047C7
:100EFC0000ED00E010B50446054BD868C0F30220A5
:100F0C00FFF7C6FF01462046FFF7AEFF10BD00BF3E
:100F1C0000ED00E0002807DB00F01F024009012370
:100F2C009340024A42F82030704700BF00E100E0D5
:100F3C000138B0F1807F0BD24FF0E0235861054AA5
:100F4C00F02182F823100020986107221A61704763
:100F5C000120704700ED00E07047026802F10C03BD
:100F6C0053E8003F23F490730C3242E8003100291F
:100F7C00F3D1026802F1140353E8003F23F001039C
:100F8C00143242E800310029F3D1036B012B05D058
:100F9C00202380F84230002303637047026802F17B
:100FAC000C0353E8003F23F010030C3242E80031ED
:100FBC000029F3D1ECE790F84130DBB2212B01D0C2
:100FCC00022070478368B3F5805F17D0036A5A1C00
:100FDC0002621A7803685A60C38C9BB2013B9BB2C5
:100FEC00C3844BB90268D36823F08003D3600268D2
:100FFC00D36843F04003D360002070470369002B93
:10100C00E4D1036A1B880268C3F308035360036AC4
:10101C0002330362E0E7000010B50446026813696E
:10102C0023F44053C1680B43136183680269134373
:10103C0042691A430168CB6823F4B05323F00C03C4
:10104C001343CB600268536923F4407381690B43EB
:10105C0053610268134B9A4220D0FFF751FD0246B0
:10106C0002EB820202EB820263689B00B2FBF3F29A
:10107C000D48A0FB02314909642303FB11231B011A
:10108C003233A0FB03035B0903F0F00202EB011205
:10109C0003F00F03216813448B6010BDFFF740FD74
:1010AC000246DDE7003801401F85EB512DE9F8437E
:1010BC0005460F4616469946DDF820802B681C68BD
:1010CC0037EA04040CBF01240024B4422DD1B8F13A
:1010DC00FF3FF3D0B8F1000F05D0FFF7F3F9A0EB09
:1010EC0009004045EAD92A6802F10C0353E8003F95
:1010FC0023F4D0730C3242E800310029F3D12A6872
:10110C0002F1140353E8003F23F00103143242E8C8
:10111C0000310029F3D1202385F8413085F8423085
:10112C00002385F84030032000E00020BDE8F88360
:10113C0060B310B5044690F8413013B3242384F8FF
:10114C0041302268D36823F40053D3602046FFF764
:10115C0063FF2268136923F4904313612268536977
:10116C0023F02A0353612268D36843F40053D360FD
:10117C0000206064202384F8413084F8423060639E
:10118C0010BD80F84030FFF715F9D7E70120704704
:10119C002DE9F04182B01E4690F84130DBB2202B95
:1011AC004BD104460D46904600294AD00AB901207D
:1011BC0044E000234364212380F84130FFF782F997
:1011CC000746A4F82480A4F82680A368B3F5805FB2
:1011DC0002D04FF000080FE02369FBB14FF000087C
:1011EC000AE038F8023B2268C3F308035360E28C30
:1011FC0092B2013A92B2E284E38C9BB28BB100962C
:10120C003B46002280212046FFF750FFD8B9002D25
:10121C00E7D015F8012B23685A60E8E7A8460025AB
:10122C00EAE700963B46002240212046FFF73EFFAE
:10123C0058B9202384F8413000E0022002B0BDE808
:10124C00F0810120FAE70320F8E70320F6E7704766
:10125C0008B50168CA6822F04002CA60202280F8F2
:10126C004120FFF7F4FF002008BD7047704708B518
:10127C00406A0023C385C384FFF7F8FF08BD70479D
:10128C0090F84230DBB2222B69D18368B3F5805FD2
:10129C004FD0826AB3F5805F04D0002B56D103691E
:1012AC00002B53D103685B681370836A013383622C
:1012BC00C38D9BB2013B9BB2C385002B51D100B5B2
:1012CC0083B00268D36823F02003D3600268D3682C
:1012DC0023F48073D3600268536923F001035361D4
:1012EC00202380F8423000234363036B012B33D15E
:1012FC0000230363026802F10C0353E8003F23F060
:10130C0010030C3242E800310029F3D103681A684B
:10131C0012F0100F06D0002201921A6801925B683D
:10132C000193019B818DFFF7AAFF002003B05DF8AC
:10133C0004FB0269002AACD1826A03685B68C3F3C0
:10134C0008031380836A02338362B1E703685B6826
:10135C0003F07F031370A8E7FFF787FFE5E7022090
:10136C00704700207047000010B582B00446026838
:10137C001368D068516913F00F0F09D113F0200FC7
:10138C000CD010F0200F09D02046FFF779FF16E0A3
:10139C0011F0010115D110F4907F12D1216B0129AC
:1013AC0079D013F0800F03D010F0800F40F0138130
:1013BC0013F0400F03D010F0400F40F0108102B03A
:1013CC0010BD13F0010F06D010F4807F03D0626CB7
:1013DC0042F00102626413F0040F04D019B1626C84
:1013EC0042F00202626413F0020F04D019B1626C75
:1013FC0042F00402626413F0080F07D010F0200FC3
:10140C0000D119B1626C42F008026264626C002A6D
:10141C00D5D013F0200F02D010F0200F29D1236863
:10142C005B6903F04003626C12F0080F00D163B3E8
:10143C002046FFF792FD23685B6913F0400F20D024
:10144C00226802F1140353E8003F23F040031432E6
:10145C0042E800310029F3D1E36B73B1624A5A635D
:10146C00E06BFFF7B5FC0028A9D0E06B436B984705
:10147C00A5E72046FFF704FFD1E72046FFF7F6FE6D
:10148C009DE72046FFF7F2FE99E72046FFF7EEFEB8
:10149C000023636493E713F0100F82D010F0100F49
:1014AC003FF47FAF002301931368019353680193BA
:1014BC00019B536913F0400F51D0E26B13685B68CA
:1014CC009BB2002B3FF47BAFA18D99427FF677AF97
:1014DC00E3859369202B37D0226802F10C0353E883
:1014EC00003F23F480730C3242E800310029F3D121
:1014FC00226802F1140353E8003F23F00103143275
:10150C0042E800310029F3D1226802F1140353E8B8
:10151C00003F23F04003143242E800310029F3D19C
:10152C00202384F8423000232363226802F10C0349
:10153C0053E8003F23F010030C3242E8003100293D
:10154C00F3D1E06BFFF720FC02236363A18DE38DE5
:10155C009BB2C91A89B22046FFF791FE2FE7A18DE5
:10156C00E38D9BB2C91A89B2E38D9BB2002B3FF479
:10157C0026AF00293FF423AF226802F10C0353E895
:10158C00003F23F490730C3242E800300028F3D172
:10159C00226802F1140353E8003F23F001031432D4
:1015AC0042E800300028F3D1202384F84230002395
:1015BC002363226802F10C0353E8003F23F010036D
:1015CC000C3242E800300028F3D10223636320463A
:1015DC00FFF755FEF3E62046FFF7EDFCEFE620465D
:1015EC00FFF736FEEBE600BF7B120008FFF7B4FCFA
:1015FC000B480C490C4A002302E0D458C450043365
:10160C00C4188C42F9D3094A094C002301E0136039
:10161C000432A242FBD300F017F8FEF75DFE7047D0
:10162C00000000200C000020181700080C000020FF
:10163C0074000020FEE703460244934200D1704739
:10164C0003F8011BF9E7000070B500260C4D0D4C9A
:10165C00641BA410A64209D100F01AF800260A4D0A
:10166C000A4C641BA410A64205D170BD55F8043B6E
:10167C0098470136EEE755F8043B98470136F2E7F8
:10168C00101700081017000810170008141700088E
:10169C00F8B500BFF8BC08BC9E467047F8B500BF53
:0816AC00F8BC08BC9E46704723
:1016B40048656C6C6F2C204920616D2053544D3368
:1016C4003246313033206D6963726F63686970200C
:1016D4002F722F6E000000000102000002030405B7
:1016E400060708090A0B0C0D0E0F1010000000006D
:1016F40001020304000000000000000001020304D2
:0417040006070809C3
:0817080004EAFF7F010000006C
:041710008501000847
:041714005D0100086B
:0C17180001000000100000000024F4009C
:04000005080015F9E1
:00000001FF
